:100000000C943A000C9457000C9457000C94570031
:100010000C9459000C9445030C9457000C94570011
:100020000C9457000C9457000C9457000C94A204A5
:100030000C9457000C9457000C94BD040C9457007A
:100040000C9457000C9457000C9466050C945700C0
:100050000C9457000C9457000C9457000C945700C4
:100060000C9457000C9457006364696E6F7073753D
:1000700078585B0011241FBECFEFD8E0DEBFCDBFA4
:1000800011E0A0E0B1E0E0EFF9E102C005900D92CF
:10009000AE36B107D9F711E0AEE6B1E001C01D926E
:1000A000A839B107E1F70E94F2000C94F60C0C9409
:1000B00000001F920F920FB60F9211242F933F93BF
:1000C0004F935F936F937F938F939F93AF93BF9360
:1000D000EF93FF9386B1982F92709093860184706E
:1000E00080937D0180917301882391F48091860132
:1000F000882371F410928500109284008091810011
:10010000856080938100439A81E08093730157C09A
:1001100080917301813009F054C080917D01882362
:1001200009F04FC08091840090918500A0E0B0E07C
:1001300080936E0190936F01A0937001B093710151
:1001400060916E0170916F018091700190917101C9
:1001500028EE33E040E050E00E946E0629E03DE3E7
:1001600040E050E00E94A006C901DA0180936E01D0
:1001700090936F01A0937001B09371018091810001
:100180008A7F8093810020916E0130916F014091B0
:1001900070015091710160E776EC80E090E00E9480
:1001A000A006C901DA018093820190938301A09394
:1001B0008401B093850143981092730182E080938B
:1001C0007201FF91EF91BF91AF919F918F917F91BC
:1001D0006F915F914F913F912F910F900FBE0F90B4
:1001E0001F9018952F923F924F925F926F927F923D
:1001F0008F929F92AF92BF92CF92DF92EF92FF9237
:100200000F931F93DF93CF93CDB7DEB7A2970FB6AF
:10021000F894DEBF0FBECDBF0E942B0587B1886268
:1002200087B9239A84B1806384B988B1866088B91C
:100230003C9A44980E9497040E9486040E94750488
:100240008091680086608093680080916C00866071
:1002500080936C000E945405789481E00E941105FF
:1002600084E690E00E94930B843608F081E090E0F1
:10027000909361018093600181E00E94110580E00C
:1002800060E00E9421052DB73EB7285030400FB6E0
:10029000F8943EBF0FBE2DBFEDB7FEB731968E016D
:1002A0000F5F1F4FADB7BEB712961C930E931197F9
:1002B00081E190E09383828380E091E09583848361
:1002C0008DE690E0978386830E94D606EDB7FEB751
:1002D00038960FB6F894FEBF0FBEEDBFC8010E945E
:1002E000050581E060E00E9421058DE091E00E941B
:1002F000050580E197E220E931E0F9013197F1F756
:100300000197D9F781E00E9411050E94F50342E1AF
:10031000642E712C6C0E7D1E31E1832E912C27E80A
:10032000A22E21E0B22E9BE7292E91E0392E89E5FD
:10033000482E81E0582E80917201813049F410924C
:10034000720180E060E00E9421058AE191E0F8C03E
:1003500080917201823009F0E7C010927201209101
:100360006E0130916F014091700150917101609167
:100370008201709183018091840190918501C090E8
:100380008201D0908301E0908401F0908501ADB7A7
:10039000BEB752970FB6F894BEBF0FBEADBF0DB734
:1003A0001EB70F5F1F4F12967C926E921197F80145
:1003B00093828282ABE2B1E0B583A4832683378344
:1003C000408751872AE030E040E050E00E94A006DC
:1003D000D8011A962D933D934D935C931D97C701B9
:1003E000B6012AE030E040E050E00E94A006F801AB
:1003F00066877787808B918B0E94D6062DB73EB794
:100400002E5E3F4F0FB6F8943EBF0FBE2DBF80E06B
:1004100060E00E942105C3010E94050580918201D0
:1004200090918301A0918401B09185010E94D9052A
:100430006091820170918301809184019091850186
:10044000E0906001F09061012AE030E040E050E08F
:100450000E94A0060027F7FC0095102FE216F30675
:100460000407150718F485B5846085BD8091820165
:1004700090918301A0918401B0918501825F9340A6
:10048000A040B04020F06CE06093B3001FC06091CA
:1004900082017091830180918401909185012AE00D
:1004A00030E040E050E00E94A006A7E1B0E02A9FC3
:1004B000C0012B9F900D3A9F900D112464E670E0CF
:1004C0000E948D0683E2861B8093B30060917B01BE
:1004D00070917C0161157105A9F180918201909163
:1004E0008301A0918401B09185019B01442737FDD0
:1004F0004095542F281739074A075B0710F42D9AA7
:1005000011C08091820190918301A0918401B091EA
:10051000850182179307A407B50718F42C9A2D9824
:1005200011C02D982C980EC080917201833051F427
:100530001092720180E060E00E9421058DE391E05D
:100540000E940505809174018130B9F51092740103
:10055000609160017091610184E690E00E949B0BC4
:1005600081E060E00E94210580916001909161012D
:10057000EDB7FEB738970FB6F894FEBF0FBEEDBFCC
:100580003196ADB7BEB71296BC92AE9211979382D8
:1005900082822EE431E035832483978386830E9410
:1005A000D6066DB77EB7685F7F4F0FB6F8947EBFF3
:1005B0000FBE6DBFC5010E94050580917A01813093
:1005C00009F0B9CE10927A0100D000D000D0EDB77A
:1005D000FEB7319622E631E0ADB7BEB712963C9336
:1005E0002E93119766E571E07383628335822482CE
:1005F0000E9407078DB79EB706960FB6F8949EBF68
:100600000FBE8DBF81E06BE00E94210520917B0130
:1006100030917C01ADB7BEB71A970FB6F894BEBF44
:100620000FBEADBFEDB7FEB731961296BC92AE923B
:1006300011979382828255824482C9016AE070E0F8
:100640000E948D0677836683C9016AE070E00E948C
:100650008D06918780870E94D606EDB7FEB73A9641
:100660000FB6F894FEBF0FBEEDBFC5010E94050591
:100670001092620110926301109264011092650160
:10068000109279011092780156CE1F920F920FB6F8
:100690000F9211248F939F9389B1982F9870909304
:1006A000800184708093810180917E018823B1F460
:1006B00080918001882331F080918101882311F499
:1006C00081E034C080918101882309F460C0809169
:1006D0008001882309F05BC083E04EC080917E01D9
:1006E0008130B9F480918101882331F080918001BB
:1006F000882311F082E01AC080918001882309F0DC
:1007000046C080918101882309F041C010927F0189
:1007100035C080917E018230B1F4809181018823BF
:1007200041F080918001882321F483E080937F0150
:1007300014C080918101882351F580918001882324
:1007400031F181E019C080918101882361F48091A9
:100750008001882341F410927F0180916001909183
:100760006101019610C080918001882381F0809101
:100770008101882361F082E080937F018091600194
:100780009091610101979093610180936001809144
:100790006001909161018436910534F083E690E028
:1007A000909361018093600180916001909161015B
:1007B0001816190634F081E090E09093610180935F
:1007C000600190917F0180917E01981739F081E05E
:1007D0008093740180917F0180937E019F918F911E
:1007E0000F900FBE0F901F9018950F931F93DF93DC
:1007F000CF93CDB7DEB761970FB6F894DEBF0FBECB
:10080000CDBF80916D008C6080936D008BB18C604A
:100810008BB989B1982F94709093800188708093E0
:10082000810180918001882339F48091810188239E
:1008300019F410927E0117C080918101882331F450
:1008400080918001882311F081E00BC080918101AB
:10085000882331F080918001882311F482E001C067
:1008600083E080937E0180917E0180937F0181E00F
:1008700060E00E94210520916001309161018DB7F7
:100880009EB708970FB6F8949EBF0FBE8DBFEDB709
:10089000FEB731968E010F5F1F4FADB7BEB71296F0
:1008A0001C930E93119781E190E09383828387E6F6
:1008B00091E095838483378326830E94D6068DB783
:1008C0009EB708960FB6F8949EBF0FBE8DBFC801A5
:1008D0000E94050561960FB6F894DEBF0FBECDBF2E
:1008E000CF91DF911F910F910895E0EBF0E08081AF
:1008F0008360808380818068808383E28093B300FB
:10090000E1EBF0E08081876080830895E1E8F0E02A
:10091000808188608083EFE6F0E080818260808360
:1009200084E294EF9093890080938800089585B5C0
:10093000886085BDEEE6F0E08081826080838DE78F
:1009400087BD08951F920F920FB60F9211248F93B7
:10095000EF93FF93E1E8F0E080818A7F8083439802
:1009600083E08093720110927301FF91EF918F9158
:100970000F900FBE0F901F9018951F920F920FB6F9
:100980000F9211242F938F939F93809175019091D3
:10099000760101969093760180937501459B02C084
:1009A000459801C0459A8091750190917601845FC8
:1009B000914041F4109276011092750185B58B7FBC
:1009C00085BD16BC9F918F912F910F900FBE0F90F8
:1009D0001F9018959BB19F709BB99BB1807F892B0D
:1009E0008BB9299A299A299808951F93182F289A24
:1009F0000E94EA04812F8295807F0E94EA0480E4AD
:100A00009FE10197F1F71F910895CF93DF93EC01D8
:100A100002C00E94F50489918823D9F7DF91CF9114
:100A200008951F93182F28980E94EA04812F829519
:100A3000807F0E94EA0480E49FE10197F1F71F9113
:100A40000895882319F4862F805802C0862F805479
:100A50000E941105089584B1836084B98AB1806FC2
:100A60008AB980E69AEE0197F1F780E30E94EA04E2
:100A700080E29EE40197F1F780E30E94EA0480EEB1
:100A800091E00197F1F780E30E94EA0480E20E947E
:100A9000EA0480E49FE10197F1F788E20E941105E2
:100AA0008FE00E941105089587E690E09093C500BD
:100AB0008093C400E1ECF0E080818861808386E06F
:100AC0008093C20080818068808308951F920F9276
:100AD0000FB60F9211242F933F938F939F93EF9311
:100AE000FF932091C6002B3521F481E0809377019C
:100AF00036C030917701313009F050C02D35A1F466
:100B0000109277018091780190917901892B19F0E9
:100B100030937A0143C010926201109263011092E7
:100B20006401109265013AC0822F80538A3078F0B8
:100B3000109277011092790110927801109262015F
:100B400010926301109264011092650114C08091AB
:100B500078019091790104978CF0109277011092AE
:100B6000620110926301109264011092650110926B
:100B700079011092780110927A0110C0E091780109
:100B8000F0917901EE59FE4F208380917801909188
:100B9000790101969093790180937801FF91EF910B
:100BA0009F918F913F912F910F900FBE0F901F90AB
:100BB00018959C018091C00085FFFCCF8BE5809348
:100BC000C60083E0293E38079CF18091C00085FF74
:100BD000FCCFC90168EE73E00E948D06605D6093F2
:100BE000C6008091C00085FFFCCFC90164E670E0BB
:100BF0000E948D06CB016AE070E00E948D06805D48
:100C00008093C6008091C00085FFFCCFC9016AE0D7
:100C100070E00E948D06CB016AE070E00E948D06B4
:100C2000805D8093C6008091C00085FFFCCF38C0F6
:100C30002536310514F18091C00085FFFCCFC90134
:100C400064E670E00E948D06605D6093C60080914E
:100C5000C00085FFFCCFC9016AE070E00E948D06EC
:100C6000CB016AE070E00E948D06805D8093C60033
:100C70008091C00085FFFCCF13C02B303105B4F04C
:100C80008091C00085FFFCCFC9016AE070E00E943E
:100C90008D06605D6093C6008091C00085FFFCCF2B
:100CA000C9016AE070E00E948D0605C08091C00015
:100CB00085FFFCCF822F805D8093C6008091C000AD
:100CC00085FFFCCF8DE58093C6000895982F809115
:100CD000C00085FFFCCF9093C6000895629FD001AD
:100CE000739FF001829FE00DF11D649FE00DF11DE7
:100CF000929FF00D839FF00D749FF00D659FF00D96
:100D00009927729FB00DE11DF91F639FB00DE11D82
:100D1000F91FBD01CF011124089597FB092E072665
:100D20000AD077FD04D02ED006D000201AF470959A
:100D300061957F4F0895F6F7909581959F4F08959F
:100D4000A1E21A2EAA1BBB1BFD010DC0AA1FBB1FCF
:100D5000EE1FFF1FA217B307E407F50720F0A21B41
:100D6000B30BE40BF50B661F771F881F991F1A94AE
:100D700069F760957095809590959B01AC01BD01D8
:100D8000CF010895AA1BBB1B51E107C0AA1FBB1FBF
:100D9000A617B70710F0A61BB70B881F991F5A9507
:100DA000A9F780959095BC01CD010895AEE0B0E023
:100DB000ECEDF6E00C94CD0C0D891E898F89988D91
:100DC00097FF02C080E090E801979E838D831A838D
:100DD000098386E08C839E01255E3F4FCE010196FC
:100DE000698D7A8DA9010E9421074D815E8157FD91
:100DF0000AC02F813885421753070CF49A01020F5D
:100E0000131FF80110822E96E4E00C94E90CAEE07A
:100E1000B0E0EDE0F7E00C94CF0C85E08C838B899B
:100E20009C899A8389839E01295E3F4FCE0101965A
:100E30006D897E89A9010E94820A2E96E2E00C94B7
:100E4000EB0CABE0B0E0E7E2F7E00C94BF0C3C0148
:100E50002B015A01FC0117821682838181FD03C098
:100E60006FEF7FEFC6C19AE0892E1E010894211C06
:100E7000311CF3012381F20123FD859123FF819130
:100E80002F01882309F4B2C1853239F423FD8591FD
:100E900023FF81912F01853229F490E0B3010E9454
:100EA000180CE7CF982FFF24EE249924FFE1FF15BB
:100EB000D0F09B3269F09C3228F4903259F0933292
:100EC00091F40EC09D3249F0903369F441E024C0A2
:100ED00052E0F52A84E0F82A28C098E0F92A25C0D3
:100EE000E0E1FE2A22C0F7FC29C0892F80538A3016
:100EF00070F4F6FE05C0989C902C1124980E15C035
:100F0000E89CE02C1124E80EF0E2FF2A0EC09E328D
:100F100029F4F6FC6BC140E4F42A07C09C3619F4AE
:100F200050E8F52A02C0983649F4F20123FD959164
:100F300023FF91912F01992309F0B8CF892F855470
:100F4000833018F08052833038F444E050E0A40E2F
:100F5000B51E5FE359830FC0933631F0933779F0B4
:100F6000933509F056C020C0F5018081898342E0A5
:100F700050E0A40EB51E610101E010E012C0F501C1
:100F8000C080D180F6FC03C06FEF7FEF02C0692DF7
:100F900070E042E050E0A40EB51EC6010E94CB0BEB
:100FA0008C015FE7F52214C0F501C080D180F6FC0A
:100FB00003C06FEF7FEF02C0692D70E042E050E0A8
:100FC000A40EB51EC6010E94C00B8C0150E8F52A84
:100FD000F3FE07C01AC080E290E0B3010E94180C33
:100FE000EA948E2D90E008171907A8F30EC0F601B9
:100FF000F7FC8591F7FE81916F0190E0B3010E94AB
:10100000180CE110EA94015010400115110579F710
:10101000EAC0943611F0993669F5F7FE08C0F5017B
:10102000208131814281538184E090E00AC0F50142
:10103000808191819C01442737FD4095542F82E0A7
:1010400090E0A80EB91E9FE6F92257FF09C05095FF
:101050004095309521953F4F4F4F5F4FE0E8FE2A76
:10106000CA01B901A1012AE030E00E945E0CD82E2D
:10107000D21840C0953729F41F2D1F7E2AE030E09A
:101080001DC01F2D197F9F3661F0903720F49835D1
:1010900009F0ACC00FC0903739F0983709F0A6C0FE
:1010A00004C028E030E00AC0106114FD146020E1A3
:1010B00030E004C014FD166020E132E017FF08C0E4
:1010C000F501608171818281938144E050E008C024
:1010D000F50180819181BC0180E090E042E050E028
:1010E000A40EB51EA1010E945E0CD82ED2188FE767
:1010F000F82EF122F6FE0BC05EEFF522D91438F47B
:10110000F4FE07C0F2FC05C08FEEF82202C01D2DD0
:1011100001C0192DF4FE0DC0FE01ED0DF11D808101
:10112000803319F499EEF92208C01F5FF2FE05C062
:1011300003C08F2D867809F01F5F0F2DF3FC14C0BC
:10114000F0FE0FC01E1510F09D2C0BC09D2C9E0CA8
:10115000911A1E2D06C080E290E0B3010E94180C87
:101160001F5F1E15C0F304C01E1510F4E11A01C064
:10117000EE2404FF0FC080E390E0B3010E94180C3E
:1011800002FF1DC001FD03C088E790E00EC088E5A6
:1011900090E00BC0802F867891F001FF02C08BE2B7
:1011A00001C080E2F7FC8DE290E0B3010E94180CD0
:1011B00006C080E390E0B3010E94180C9A94D91401
:1011C000C0F3DA94F101ED0DF11D808190E0B301DF
:1011D0000E94180CDD20A9F706C080E290E0B30160
:1011E0000E94180CEA94EE20C1F743CEF301668109
:1011F0007781CB012B96E2E10C94DB0CFC0120FD06
:1012000008C023FD05C022FF02C07383628351839F
:1012100040830895EF92FF920F931F9344FF02C003
:1012200033E011C046FF02C034E00DC0DB01FC0119
:10123000AA0FBB1FEE1FFF1F1094D1F76A0F7B1F71
:101240008E1F9F1F31E0660F771F881F991F315037
:10125000D1F77B018C01E20EF11C011D111DA801CB
:101260009701B701CA011F910F91FF90EF90089568
:101270000F931F93CF93DF938C01C8010E94D60B6D
:10128000EC0197FD08C00E94AD0B892BB1F7CE0190
:10129000B8010E94440CCE01DF91CF911F910F91B4
:1012A0000895A0E0B0E0E7E5F9E00C94C70CEC018C
:1012B000C62E5A01122F0E94D60BAC018B3219F0A8
:1012C0008D3251F41068CA9409F46DC0CE010E94A9
:1012D000D60BAC0197FD67C06DEFD62ED1228D2DB8
:1012E000807301F54033F1F4CA9409F447C0CE018C
:1012F0000E94D60BAC0197FD41C082E0D82A483746
:1013000011F0483559F480E4D82ACA94B9F1CE01D5
:101310000E94D60BAC0199232CF430C0D6FC02C03D
:1013200080E1D82AEE24FF248701242F205328307F
:1013300088F0D4FC09C02A3068F0D6FE05C02F7DA5
:10134000822F8151863028F0CA01BE010E94440CD0
:1013500012C02750C801B7014D2D0E940A097B0118
:101360008C0182E0D82ACA9461F0CE010E94D60B8B
:10137000AC0197FFDACFD1FC04C015C0EE24FF24E6
:101380008701D7FE08C010950095F094E094E11C09
:10139000F11C011D111DC501B801A7012D2D0E94D1
:1013A000FE0881E001C080E0CDB7DEB7EAE00C9432
:1013B000E30CA0E2B0E0EFEDF9E00C94C30C6C019B
:1013C000A62E8A017901FE01319680E2DF011D928D
:1013D0008A95E9F770E030E060E040E050E04F01CE
:1013E000A1E0B0E0F6018381F70183FD259183FF41
:1013F00021917F01222309F47EC02E3519F4411575
:10140000510569F1872F90E08417950744F42D3535
:1014100051F12D3221F4332329F431E021C033235B
:1014200009F4622F322F832F869586958695F401D5
:10143000E80FF11D832F87703D0102C0660C771CF9
:101440008A95E2F7208126292083361711F430E0AF
:1014500007C0361710F43F5FE6CF3150E4CF71E09C
:101460004F5F5F4FBFCF332319F08E8180628E8331
:10147000772359F0FE0131969E012F5D3F4F808109
:1014800080958193E217F307D1F7BB24B3944E0103
:101490000894811C911CC6010E94D60BAC0197FDDB
:1014A00022C0869586958695F401E80FF11D80810E
:1014B00090E09A012770307002C0959587952A9523
:1014C000E2F780FD05C0CA01B6010E94440C0BC0C2
:1014D0000115110519F0D8014D938D01AA94BB2473
:1014E000AA20C9F602C0BB2031F40115110529F06C
:1014F000F801108202C0EE24FF24C701A096EEE09E
:101500000C94DF0CA0E0B0E0E8E8FAE00C94C30C27
:101510005C016B013A01FC01178216828824EAC043
:10152000812F90E00E94AD0B892B21F0C5010E9414
:101530003809E0C0153249F4F601F3FC6591F3FE79
:1015400061916F01653269F415E2C5010E94D60B05
:1015500097FDDCC0181709F4CDC0B5010E94440CFA
:10156000DAC06A3219F0162F00E006C0F3FC1591BC
:10157000F3FE11916F0101E099240FC00260692D03
:1015800070E080E090E040E20E940A09962EF601A9
:10159000F3FC1591F3FE11916F01212F20532A3096
:1015A00068F301FD03C099249A9403C0992009F4BB
:1015B000B2C0183621F01C3699F4F6010BC0F601C2
:1015C000F3FC6591F3FE6191683619F06F01162FF7
:1015D00007C008600460F3FC1591F3FE11916F01E0
:1015E000112309F498C088E690E0612F70E00E9412
:1015F000B50B892B09F48FC0802F00FF03C0EE24A8
:10160000FF2407C0F301E080F18022E030E0620EA9
:10161000731E1E3651F4F5014681578160E070E07B
:10162000C701202F0E94FE0865C0133691F481FD8A
:1016300002C099249394C5010E94D60B97FD66C001
:10164000E114F10419F0F70181937F019A9499F75D
:101650004FC01B3559F4C501692DA70196010E94A1
:10166000D9096C01009709F043C03DC0C5010E9433
:10167000380997FD4BC01F3659F1103728F414363E
:1016800029F1193639F527C0133719F0153711F537
:101690001DC0C5010E94D60BEC0197FD11C00E9430
:1016A000AD0B892B29F0CE01B5010E94440C08C076
:1016B000E114F10419F0F701C1937F019A9449F7FD
:1016C000E114F104A9F0F701108212C0006203C016
:1016D000006101C00064C501692DA701202F0E948F
:1016E0005109882329F4F5018381807379F413C0AB
:1016F00000FF8394F501F380F601F3FC1591F3FEEE
:1017000011916F01112309F00BCF05C0882019F446
:101710002FEF3FEF02C0282D30E0C901CDB7DEB773
:10172000EEE00C94DF0CF999FECF92BD81BDF89AE2
:10173000992780B50895262FF999FECF92BD81BDD6
:10174000F89A019700B4021639F01FBA20BD0FB6FF
:10175000F894FA9AF99A0FBE089591110DC180324A
:1017600019F089508550D0F70895FC0105900616B0
:1017700021F00020D9F7C00108953197CF010895D5
:10178000FC010590615070400110D8F7809590954C
:101790008E0F9F1F0895FC01615070400190011051
:1017A000D8F7809590958E0F9F1F0895CF93DF9364
:1017B000EC014B8140FF1AC046FF0AC04F7B4B83B0
:1017C0008E819F8101969F838E838A81282F2BC0D3
:1017D00042FF13C0E881F9818081282F332727FD3C
:1017E00030952115310529F440624B832FEF3FEFEF
:1017F0001BC03196F983E88311C0EA85FB85CE01D1
:1018000009959C0197FF0AC09B812F5F3F4F11F004
:1018100080E201C080E1892B8B83E8CF8E819F819C
:1018200001969F838E8330E0C901DF91CF910895A7
:101830000F931F93CF93DF938C01EB018B8181FF7B
:101840001BC082FF0DC02E813F818C819D81281796
:10185000390764F4E881F9810193F983E88306C0CC
:10186000E885F985802F0995892B31F48E819F8138
:1018700001969F838E8302C00FEF1FEFC801DF9197
:10188000CF911F910F9108959C01FB01838180FFEF
:1018900011C086FD0FC09FEF2F3F390759F02283FB
:1018A00080648F7D83838681978101979783868368
:1018B00030E002C02FEF3FEFC9010895FA01AA27D7
:1018C000283051F1203181F1E8946F936E7F6E5F83
:1018D0007F4F8F4F9F4FAF4FB1E03ED0B4E03CD031
:1018E000670F781F891F9A1FA11D680F791F8A1F14
:1018F000911DA11D6A0F711D811D911DA11D20D07B
:1019000009F468943F912AE0269F11243019305D34
:101910003193DEF6CF010895462F4770405D419325
:10192000B3E00FD0C9F7F6CF462F4F70405D4A3372
:1019300018F0495D31FD4052419302D0A9F7EACF3A
:10194000B4E0A6959795879577956795BA95C9F769
:1019500000976105710508959B01AC010A2E06945C
:101960005795479537952795BA95C9F7620F731F15
:10197000841F951FA01D08959927882708952F92E9
:101980003F924F925F926F927F928F929F92AF920F
:10199000BF92CF92DF92EF92FF920F931F93CF935C
:1019A000DF93CDB7DEB7CA1BDB0B0FB6F894DEBFF3
:1019B0000FBECDBF09942A88398848885F846E8419
:1019C0007D848C849B84AA84B984C884DF80EE8063
:1019D000FD800C811B81AA81B981CE0FD11D0FB66C
:1019E000F894DEBF0FBECDBFED010895F894FFCF90
:1019F000454525642050726F6A65637400596974A7
:101A000069616E204875616E670074696D696E6703
:101A10002E2E2E202020202020200025356C646DC5
:101A200073203D2025346C642E256C64004D617854
:101A30002074696D652065787069726564004D6118
:101A4000783D253264002564002533642E2564002A
:0E1A5000010000000000004D61783D2564009B
:00000001FF
